:100000000C9460000C947F000C947F000C947F0093
:100010000C947F000C947F000C947F000C947F0064
:100020000C947F000C947F000C947F000C947F0054
:100030000C947F000C94F8000C947F000C947F00CB
:100040000C947F000C947F000C947F000C947F0034
:100050000C947F000C947F000C947F000C947F0024
:100060000C947F000C947F000C947F000C947F0014
:100070000C947F000C947F000C947F000C947F0004
:100080000C947F000C947F000C947F006104E809BD
:10009000EB0978049606250707067805F804590940
:1000A000CA08B0073F085C0B4E0B550B060A780ACE
:1000B0005D0A450A2A0A180A900ABE0A200BEF0AAE
:1000C00011241FBECFEFD0E4DEBFCDBF11E0A0E012
:1000D000B1E0EAE0F4E200E00BBF02C007900D924D
:1000E000AE33B107D9F721E0AEE3B1E001C01D9214
:1000F000AE3BB207E1F70E94E20E0C9403120C949F
:100100000000CF93DF9300D01F92CDB7DEB7898375
:100110007B836A8389818A3031F48A819B81BC0127
:100120008DE00E94810080EC90E0FC018081882FAE
:1001300090E080729927892BB1F386EC90E02981B9
:10014000FC01208380E090E00F900F900F90DF91F2
:10015000CF910895CF93DF93CDB7DEB781E890E0DC
:100160002BE0FC01208388E890E02DE730E0FC01E3
:10017000318320838FE690E022E0FC01208384E835
:1001800090E0FC011182108280910E0190910F018C
:10019000A0911001B091110180933F019093400113
:1001A000A0934101B09342018FE590E02FE530E04C
:1001B000F90120812068FC0120830000DF91CF91AC
:1001C0000895CF93DF93CDB7DEB781E890E0FC01CF
:1001D00010820000DF91CF910895CF93DF93CDB7C8
:1001E000DEB781E080933E010000DF91CF9108955A
:1001F0001F920F9200905F000F92112400905B00FD
:100200000F922F933F934F935F936F937F938F93AF
:100210009F93AF93BF93EF93FF93CF93DF93CDB7AC
:10022000DEB780913F0190914001A0914101B091D2
:1002300042010197A109B10980933F0190934001C8
:10024000A0934101B093420180913F019091400100
:10025000A0914101B0914201892B8A2B8B2B91F403
:100260000E94ED0080910E0190910F01A09110016C
:10027000B091110180933F0190934001A0934101FF
:10028000B09342010000DF91CF91FF91EF91BF91B8
:10029000AF919F918F917F916F915F914F913F911E
:1002A0002F910F9000925B000F9000925F000F90D3
:1002B0001F901895CF93DF9300D000D0CDB7DEB755
:1002C00069837A838B839C8389819A81AB81BC818A
:1002D00080930E0190930F01A0931001B093110130
:1002E00080910E0190910F01A0911001B091110128
:1002F00080933F0190934001A0934101B09342014C
:1003000000000F900F900F900F90DF91CF91089504
:10031000CF93DF93CDB7DEB78AE790E02AE730E0EE
:10032000F9012081206EFC0120830000DF91CF9134
:100330000895CF93DF931F92CDB7DEB789838CE703
:1003400090E02981283028F02CE730E0F901208165
:1003500001C02981FC0120831092500106C00000D9
:10036000809150018F5F80935001809150018F30B8
:10037000B0F300000F90DF91CF910895CF93DF93FA
:1003800000D0CDB7DEB79A83898389819A81813085
:10039000910531F18230910579F1892BC9F583E21C
:1003A00090E0FC018081882F90E081709927892B53
:1003B00029F481E090E09A8389832DC083E290E064
:1003C000FC018081882F90E082709927892B29F485
:1003D00082E090E09A8389831EC01A8219821BC032
:1003E00080914301882319F41A82198214C081E094
:1003F00090E09A8389830FC080914301882319F488
:100400001A82198208C082E090E09A83898303C02F
:100410001A821982000089819A8181309105B9F090
:100420008230910539F1892B09F037C010924501CE
:10043000109244011092430185E290E025E230E001
:10044000F90120812F702061FC01208326C081E00A
:10045000809344011092450181E08093430185E23D
:1004600090E025E230E0F90120812F702062FC014C
:10047000208313C01092440181E08093450181E004
:100480008093430185E290E025E230E0F90120818C
:100490002F702064FC012083000089819A810F90D5
:1004A0000F90DF91CF910895CF93DF9300D0CDB718
:1004B000DEB79A83898389819A81009719F0019721
:1004C00089F017C080911201813021F0809145019F
:1004D000882319F41A82198212C081E090E09A836D
:1004E00089830DC080911201813041F41A821982F2
:1004F00005C081E090E09A83898301C00000898172
:100500009A81009709F46EC0019709F06EC088E7E0
:1005100090E0FC0180819181909352018093510180
:100520008091510190915201823C914078F58091E7
:1005300018019091190180719927892B39F18091C7
:10054000180190911901880F991F816090931901EA
:100550008093180180912201882F90E0880F991FC5
:1005600081608093220180912301882F90E0880F81
:10057000991F81608093230180912401882F90E04E
:10058000880F991F8160809324012EC080915101B2
:10059000909152018B38924038F1809118019091DE
:1005A0001901883F910501F180911801909119017D
:1005B0009695879580689093190180931801809192
:1005C000220186958068809322018091230186957F
:1005D00080688093230180912401869580688093B0
:1005E000240102C0000001C0000089819A810F909F
:1005F0000F90DF91CF910895CF93DF9300D0CDB7C7
:10060000DEB79A83898389819A8181309105D1F0FF
:10061000823091051CF4892B49F0BCC082309105D1
:1006200009F45EC0039709F488C0B4C08091120138
:10063000813019F41A821982B2C081E090E09A8365
:100640008983ADC080911201813019F41A82198218
:10065000A6C083E290E0FC018081882F90E0817049
:10066000992731E0892B09F030E083E290E0FC012A
:100670008081882F90E08270992721E0892B09F4EE
:1006800020E0832F8223882329F082E090E09A8360
:10069000898385C083E290E0FC018081882F90E00F
:1006A0008270992731E0892B09F030E083E290E0F5
:1006B000FC018081882F90E08170992721E0892BAF
:1006C00009F420E0832F8223882329F083E090E03F
:1006D0009A83898364C081E090E09A8389835FC0B4
:1006E00080911201813019F41A82198258C083E274
:1006F00090E0FC018081882F90E08170992731E0A3
:10070000892B09F030E083E290E0FC018081882FA2
:1007100090E08270992721E0892B09F420E0832F53
:100720008223882329F082E090E09A83898337C06E
:1007300081E090E09A83898332C0809112018130F8
:1007400019F41A8219822BC083E290E0FC018081A7
:10075000882F90E08270992731E0892B09F030E0F2
:1007600083E290E0FC018081882F90E081709927DE
:1007700021E0892B09F420E0832F8223882329F0AC
:1007800083E090E09A8389830AC081E090E09A83B5
:10079000898305C081E090E09A8389830000898184
:1007A0009A818130910509F462C08230910524F468
:1007B000892B09F45EC062C08230910519F003975D
:1007C00039F15CC08091160190911701883F910525
:1007D00009F451C080911601909117019695879563
:1007E0008068909317018093160180911F01869570
:1007F000806880931F018091200186958068809396
:10080000200180912101869580688093210133C069
:10081000809116019091170180719927892B69F1B8
:100820008091160190911701880F991F8160909314
:1008300017018093160180911F01882F90E0880F87
:10084000991F816080931F0180912001882F90E083
:10085000880F991F81608093200180912101882F4A
:1008600090E0880F991F81608093210106C00000ED
:1008700005C0000003C0000001C0000089819A810A
:100880000F900F90DF91CF910895CF93DF9300D019
:10089000CDB7DEB79A83898389819A81092E000CAE
:1008A000AA0BBB0B40E050E02CE030E0841B950B22
:1008B0002817390708F492C58A5B9F4FFC010C94F6
:1008C0003D1180911201813019F41A82198289C573
:1008D00080914C0190914D01019729F483E090E0C3
:1008E0009A8389837EC588E090E09A83898379C55D
:1008F00080911501823059F490911A018091230161
:10090000981729F488E090E09A83898370C08091D9
:100910001501823079F480911A018E3F59F490913B
:10092000220180911A01981729F487E090E09A83B8
:1009300089835DC080911501823059F490911A012C
:1009400080912201981729F486E090E09A838983A8
:100950004EC080911501823079F480911A018F3E4A
:1009600059F49091240180911A01981729F486E096
:1009700090E09A8389833BC080911501823059F4BD
:1009800090911A0180912401981729F487E090E052
:100990009A8389832CC080911501813059F49091FC
:1009A0001A0180912401981729F489E090E09A8334
:1009B00089831DC080911501813059F490911A01ED
:1009C00080912201981729F48AE090E09A83898324
:1009D0000EC080911501813029F481E090E09A8366
:1009E0008983FFC483E090E09A838983FAC4F9C4C1
:1009F00080911501803459F490911A018091200161
:100A0000981729F483E090E09A83898370C08091DD
:100A10001501803479F480911A018E3F59F4909138
:100A20001A0180911F01981729F485E090E09A83BC
:100A300089835DC080911501803459F490911A0129
:100A400080911F01981729F484E090E09A838983AC
:100A50004EC080911501803479F480911A018F3E47
:100A600059F490911A0180912101981729F484E09A
:100A700090E09A8389833BC080911501803459F4BA
:100A800090911A0180912101981729F485E090E056
:100A90009A8389832CC080911501803859F49091F4
:100AA0001A0180912101981729F48BE090E09A8334
:100AB00089831DC080911501803859F490911A01E5
:100AC00080911F01981729F48CE090E09A83898324
:100AD0000EC080911501803829F482E090E09A835D
:100AE00089837FC488E090E09A8389837AC479C43B
:100AF00080911501803459F490911A018091200160
:100B0000981729F483E090E09A8389837FC08091CD
:100B10001501803489F490911A018091260198176B
:100B200059F490911A0180911F01981729F485E0DA
:100B300090E09A8389836AC080911501803459F4CA
:100B400090911A0180911F01981729F484E090E098
:100B50009A8389835BC080911501803489F49091D8
:100B60001A0180912501981759F490911A018091EA
:100B70002101981729F484E090E09A83898346C084
:100B800080911501803459F49091210180911A01CE
:100B9000981729F485E090E09A83898337C0809183
:100BA0001501803859F490911A018091210198170C
:100BB00029F48BE090E09A83898328C08091150105
:100BC000803859F490911A0180911F01981729F4E7
:100BD0008CE090E09A83898319C080911501803858
:100BE00029F482E090E09A838983FBC390911A01F3
:100BF00080912501981729F486E090E09A838983F3
:100C0000F0C387E090E09A838983EBC3EAC38091C5
:100C10001501803459F490911A01809120019817A0
:100C200029F483E090E09A8389837FC08091150145
:100C3000803489F490911A0180912601981759F413
:100C400090911A0180911F01981729F485E090E096
:100C50009A8389836AC080911501803459F49091F8
:100C60001F0180911A01981729F484E090E09A837B
:100C700089835BC080911501803489F490911A01B9
:100C800080912501981759F490911A0180912101C2
:100C9000981729F484E090E09A83898346C0809174
:100CA0001501803459F490911A018091210198170F
:100CB00029F485E090E09A83898337C080911501FB
:100CC000803859F490911A0180912101981729F4E4
:100CD0008BE090E09A83898328C080911501803849
:100CE00059F490911A0180911F01981729F48CE012
:100CF00090E09A83898319C080911501803829F486
:100D000082E090E09A8389836CC390911A0180916C
:100D10002601981729F487E090E09A83898361C3BC
:100D200086E090E09A8389835CC35BC38091150160
:100D3000823059F49091230180911A01981729F477
:100D400088E090E09A8389837FC08091150182308A
:100D500089F490911A0180912601981759F4909185
:100D60001A0180912201981729F487E090E09A8374
:100D700089836AC080911501823059F490912201D3
:100D800080911A01981729F486E090E09A8389836C
:100D90005BC080911501823089F490911A01809195
:100DA0002501981759F490911A0180912401981700
:100DB00029F486E090E09A83898346C080911501EA
:100DC000823059F490911A0180912401981729F4E6
:100DD00087E090E09A83898337C080911501813044
:100DE00059F490911A0180912401981729F489E00F
:100DF00090E09A83898328C080911501813059F44D
:100E000090911A0180912201981729F48AE090E0CC
:100E10009A83898319C080911501813029F481E07A
:100E200090E09A838983DDC290911A018091260116
:100E3000981729F485E090E09A838983D2C284E0F0
:100E400090E09A838983CDC2CCC280911501823013
:100E500059F49091230180911A01981729F488E0A0
:100E600090E09A8389837BC080911501823079F468
:100E700080911A018E3F59F49091220180911A01BC
:100E8000981729F487E090E09A83898368C080915D
:100E90001501823059F49091220180911A0198171E
:100EA00029F486E090E09A83898359C080911501E6
:100EB000823079F480911A018F3E59F49091240187
:100EC00080911A01981729F486E090E09A8389832B
:100ED00046C080911501823059F490911A01809199
:100EE0002401981729F487E090E09A83898337C01A
:100EF00080911501813059F490911A01809124015B
:100F0000981729F489E090E09A83898328C080911A
:100F10001501813059F490911A018091220198179E
:100F200029F48AE090E09A83898319C080911501A1
:100F3000813029F481E090E09A83898352C29091B4
:100F40001A0180912501981729F484E090E09A8392
:100F5000898347C285E090E09A83898342C241C277
:100F600080911501823059F49091230180911A01EA
:100F7000981729F488E090E09A8389837FC0809154
:100F80001501823089F490911A01809126019817F9
:100F900059F490911A0180912201981729F487E061
:100FA00090E09A8389836AC080911501823059F458
:100FB0009091220180911A01981729F486E090E01F
:100FC0009A8389835BC080911501823089F4909166
:100FD0001A0180912501981759F490911A01809176
:100FE0002401981729F486E090E09A83898346C00B
:100FF00080911501823059F490911A018091240159
:10100000981729F487E090E09A83898337C080910C
:101010001501813059F490911A018091220198179D
:1010200029F48AE090E09A83898328C08091150191
:10103000813059F490911A0180912401981729F474
:1010400089E090E09A83898319C0809115018130ED
:1010500029F481E090E09A838983C3C190911A01B9
:1010600080912601981729F485E090E09A8389837E
:10107000B8C18BE090E09A838983B3C1B2C18091FB
:101080001501823059F49091230180911A0198172B
:1010900029F488E090E09A8389837BC080911501D0
:1010A000823079F480911A018E3F59F49091220197
:1010B00080911A01981729F487E090E09A83898338
:1010C00068C080911501823059F49091220180917D
:1010D0001A01981729F486E090E09A83898359C011
:1010E00080911501823079F480911A018F3E59F474
:1010F0009091240180911A01981729F486E090E0DC
:101100009A83898346C080911501823059F4909169
:101110001A0180912401981729F487E090E09A83BE
:10112000898337C080911501813059F490911A015B
:1011300080912201981729F48AE090E09A838983AC
:1011400028C080911501813059F490911A01809145
:101150002401981729F489E090E09A83898319C0C3
:1011600080911501813029F481E090E09A83898390
:1011700038C190911A0180912501981729F484E0D3
:1011800090E09A8389832DC18CE090E09A838983D3
:1011900028C127C180911501803459F490911A011A
:1011A00080912001981729F483E090E09A83898345
:1011B0007FC080911501803489F490911A0180914B
:1011C0002601981759F490911A0180911F019817E0
:1011D00029F485E090E09A8389836AC080911501A3
:1011E000803459F490911A0180911F01981729F4C5
:1011F00084E090E09A8389835BC0809115018034FC
:1012000089F490911A0180912501981759F49091D1
:101210001A0180912101981729F484E090E09A83C3
:10122000898346C080911501803459F49091210141
:1012300080911A01981729F485E090E09A838983B8
:1012400037C080911501803859F490911A0180912E
:101250001F01981729F48CE090E09A83898328C0B5
:1012600080911501803859F490911A0180912101E3
:10127000981729F48BE090E09A83898319C08091B4
:101280001501803829F482E090E09A838983A9C00F
:1012900090911A0180912501981729F486E090E039
:1012A0009A8389839EC08AE090E09A83898399C05B
:1012B00098C080911501803459F490911A01809161
:1012C0002001981729F483E090E09A8389837FC0F6
:1012D00080911501803489F490911A018091260142
:1012E000981759F490911A0180911F01981729F4C9
:1012F00085E090E09A8389836AC0809115018034EB
:1013000059F490911F0180911A01981729F484E0F3
:1013100090E09A8389835BC080911501803489F4C1
:1013200090911A0180912501981759F490911A0112
:1013300080912101981729F484E090E09A838983B1
:1013400046C080911501803459F490911A01809122
:101350002101981729F485E090E09A83898337C0AA
:1013600080911501803859F490911A0180911F01E4
:10137000981729F48CE090E09A83898328C08091A3
:101380001501803859F490911A0180912101981724
:1013900029F48BE090E09A83898319C0809115012C
:1013A000803829F482E090E09A8389831AC0909172
:1013B0001A0180912601981729F487E090E09A831A
:1013C00089830FC086E090E09A8389830AC009C0B0
:1013D0001A82198206C01A82198203C01A821982DF
:1013E000000089819A81092E000CAA0BBB0B40E0FA
:1013F00050E02CE030E0841B950B2817390708F4E7
:101400005CC18D5A9F4FFC010C943D1188EC90E01B
:10141000A0E0B0E080931B0190931C01A0931D01FC
:10142000B0931E018091150186958093150145C1E9
:1014300088EC90E0A0E0B0E080931B0190931C0149
:10144000A0931D01B0931E0180911501880F809318
:10145000150133C185EA90E0A0E0B0E080931B0164
:1014600090931C01A0931D01B0931E018091150162
:10147000880F8093150180911A01882F90E0880FC2
:10148000991F816080931A0118C185EA90E0A0E05D
:10149000B0E080931B0190931C01A0931D01B093B9
:1014A0001E0180911501880F8093150180911A010A
:1014B0008695806880931A0100C185EA90E0A0E0DB
:1014C000B0E080931B0190931C01A0931D01B09389
:1014D0001E018091150186958093150180911A0156
:1014E000882F90E0880F991F816080931A01E5C0D2
:1014F00085EA90E0A0E0B0E080931B0190931C018E
:10150000A0931D01B0931E018091150186958093D3
:10151000150180911A018695806880931A01CDC0CB
:101520008EEB90E0A0E0B0E080931B0190931C0153
:10153000A0931D01B0931E0180915301909154011D
:10154000892B61F480911501880F8093150181E04A
:1015500090E09093540180935301AFC080911501A6
:10156000880F8093150180911A0186958068809379
:101570001A0110925401109253019FC08EEB90E01B
:10158000A0E0B0E080931B0190931C01A0931D018B
:10159000B0931E018091550190915601892B61F401
:1015A00080911501880F8093150181E090E0909360
:1015B00056018093550181C080911501880F809359
:1015C000150180911A01882F90E0880F991F816082
:1015D00080931A0110925601109255016EC08EEB45
:1015E00090E0A0E0B0E080931B0190931C01A093D9
:1015F0001D01B0931E018091570190915801892BD4
:1016000061F48091150186958093150181E090E049
:10161000909358018093570150C080911501869591
:101620008093150180911A01882F90E0880F991FEF
:10163000816080931A0110925801109257013DC0A9
:101640008EEB90E0A0E0B0E080931B0190931C0132
:10165000A0931D01B0931E018091590190915A01F0
:10166000892B61F48091150186958093150181E0A5
:1016700090E090935A01809359011FC08091150109
:1016800086958093150180911A01869580688093D4
:101690001A0110925A01109259010FC081E090E096
:1016A000909347018093460108C081E090E09093B9
:1016B00049018093480101C0000089819A810F90FF
:1016C0000F90DF91CF910895CF93DF9300D0CDB7E6
:1016D000DEB79A83898389819A818230910581F16D
:1016E000833091052CF4009759F00197A9F082C03E
:1016F0008330910509F46DC0049709F46FC07AC076
:1017000080914301882319F41A82198273C081E001
:1017100090E09A8389836EC083E290E0FC0180812F
:10172000882F90E084709927892B29F482E090E03B
:101730009A8389835FC081E090E09A8389835AC04D
:1017400080914601909147010197E9F480914A0107
:10175000882F90E0880F991F816080934A018091C3
:101760004A01873029F483E090E09A83898342C05C
:1017700081E090E090934D0180934C0181E090E0F6
:101780009A83898337C080914801909149010197DC
:10179000D9F480914B01882F90E0880F991F8160C8
:1017A00080934B0180914B01873029F483E090E0D6
:1017B0009A8389831FC010924D0110924C0181E0E1
:1017C00090E09A83898316C082E090E09A838983AF
:1017D00011C084E090E09A8389830CC0809143011A
:1017E000882319F41A82198204C084E090E09A8355
:1017F0008983000089819A818230910509F44BC068
:10180000833091052CF4009759F0019771F083C053
:101810008330910509F442C0049709F451C07BC09C
:1018200010924A0110924B0176C080E88093130118
:1018300081E08093140188E08093150181EF90E0AE
:10184000909317018093160181EF90E09093190116
:10185000809318018BEF80931A018DEF80931F0105
:101860008BEF8093200187EF809321018DEF809390
:1018700022018BEF8093230187EF80932401109244
:10188000470110924601109249011092480181E0EF
:101890008093120140C0109212013DC01092470186
:1018A00010924601109249011092480181E0809304
:1018B000120181E090E090934F0180934E012BC084
:1018C00080E88093130181E08093140188E0809385
:1018D000150181EF90E0909317018093160181EF3D
:1018E00090E090931901809318018BEF80931A0177
:1018F0008DEF80931F018BEF8093200187EF809302
:1019000021018DEF809322018BEF8093230187EFDC
:1019100080932401000089819A810F900F90DF91BC
:10192000CF910895CF93DF9300D0CDB7DEB79A83E0
:10193000898389819A818230910509F43EC0833080
:1019400091052CF4009759F0019701F17BC0833089
:10195000910509F449C0049709F45DC073C08091F2
:101960004301882319F41A8219826FC080914E01B5
:1019700090914F01019729F481E090E09A83898347
:1019800064C082E090E09A8389835FC080914301C4
:10199000882319F41A82198258C080914E019091BF
:1019A0004F01019729F481E090E09A8389834DC02B
:1019B00082E090E09A83898348C080914301882324
:1019C00019F41A82198241C080914E0190914F0101
:1019D000019729F481E090E09A83898336C083E0FF
:1019E00090E09A83898331C080914301882319F460
:1019F0001A8219822AC080914E0190914F0101975D
:101A000029F481E090E09A8389831FC084E090E00C
:101A10009A8389831AC080914301882319F41A821A
:101A2000198213C080914E0190914F01019729F4C2
:101A300081E090E09A83898308C082E090E09A83F5
:101A4000898303C01A821982000089819A818230B9
:101A5000910511F1833091052CF4009749F001971D
:101A600089F045C08330910531F1049799F13FC069
:101A700088E290E02FEFFC0120838BE290E0FC01F4
:101A8000108235C088E290E02AEAFC0120838BE2D4
:101A900090E0FC0110822BC088E290E020911301BD
:101AA000FC0120838BE290E0209116013091170118
:101AB000FC0120831CC088E290E020911401FC010D
:101AC00020838BE290E02091180130911901FC01F4
:101AD00020830DC088E290E020911501FC01208355
:101AE0008BE290E020911A01FC01208300008981A3
:101AF0009A810F900F90DF91CF910895CF93DF934C
:101B000000D0CDB7DEB79A83898389819A81009707
:101B100019F0019799F015C083E290E0FC018081F3
:101B2000882F90E088709927892B29F481E090E034
:101B30009A83898308C01A82198205C01A82198281
:101B400002C01A82198289819A810097C9F001978F
:101B500009F017C01092430181E0809312011092A6
:101B60004A0110924B0110924701109246011092C7
:101B700049011092480110924F0110924E0101C08C
:101B8000000089819A810F900F90DF91CF91089585
:101B9000CF93DF9300D0CDB7DEB79A838983898155
:101BA0009A81892B19F41A82198202C01A82198229
:101BB00089819A81892B09F036C080914301813057
:101BC00049F582E290E022E230E0F9012081422FE3
:101BD00020914A01222F30E0220F331F220F331FA2
:101BE000242BFC01208382E290E022E230E0F90124
:101BF0002081422F20914B01222F30E0220F331FF2
:101C000022953295307F3227207F3227242BFC010A
:101C1000208308C082E290E0FC01808182E290E0B3
:101C2000FC011082000089819A810F900F90DF9152
:101C3000CF910895CF93DF9300D0CDB7DEB79A83CD
:101C4000898389819A8181309105B1F08230910533
:101C5000A1F1892B09F04CC080911201813021F053
:101C600080914401882319F41A82198241C082E0CC
:101C700090E09A8389833CC080911201813021F0E9
:101C800080914401882319F41A82198231C00E947C
:101C9000911181709078992324F401978E6F9F6F32
:101CA0000196019729F482E090E09A83898320C00D
:101CB00081E090E09A8389831BC08091120181307A
:101CC00021F080914401882319F41A8219820FC0EF
:101CD0000E94911181709927892B29F481E090E06D
:101CE0009A83898304C082E090E09A83898300000C
:101CF00089819A818130910541F08230910509F402
:101D000055C0892B09F454C056C090911A01809196
:101D100022018917F0F4809118019091190196958C
:101D20008795806890931901809318018091220112
:101D30008695806880932201809123018695806832
:101D400080932301809124018695806880932401EB
:101D500031C090911A0180912401981758F5809113
:101D6000180190911901880F991F816090931901B2
:101D70008093180180912201882F90E0880F991F8D
:101D800081608093220180912301882F90E0880F49
:101D9000991F81608093230180912401882F90E016
:101DA000880F991F81608093240104C0000003C044
:101DB000000001C0000089819A810F900F90DF918F
:101DC000CF9108950F931F93CF93DF93CDB7DEB7D5
:101DD00067970FB6F894DEBF0FBECDBF81E290E0EB
:101DE0002CEFFC01208382E290E023E0FC012083C1
:101DF00084E290E020EFFC01208385E290E02FE078
:101E0000FC01208387E290E02FEFFC01208388E231
:101E100090E0FC0110828AE290E02FEFFC01208329
:101E20008BE290E0FC0110820E94880181E00E9418
:101E3000990182E1EBE2F1E0DE01169601900D924C
:101E40008A95E1F789E090E09C838B831D828D81E8
:101E500080935B0188EC90E0A0E0B0E080935C01AF
:101E600090935D01A0935E01B0935F0180915C014E
:101E700090915D01A0915E01B0915F01809360013E
:101E800090936101A0936201B09363018EEB91E0A6
:101E900090936501809364018D818093660186E94A
:101EA00090E0A0E0B0E08093670190936801A09378
:101EB0006901B0936A018091670190916801A091D6
:101EC0006901B0916A0180936B0190936C01A093BA
:101ED0006D01B0936E0184E69BE090937001809356
:101EE0006F018D818093710181E090E0A0E0B0E00E
:101EF0008093720190937301A0937401B093750164
:101F00008091720190917301A0917401B09175015B
:101F10008093760190937701A0937801B093790133
:101F200082E99CE090937B0180937A018D8180937C
:101F30007C018FEA90E0A0E0B0E080937D01909377
:101F40007E01A0937F01B093800180917D019091EB
:101F50007E01A0917F01B0918001809381019093D7
:101F60008201A0938301B093840185E494E090936F
:101F70008601809385018D818093870186E990E0B9
:101F8000A0E0B0E08093880190938901A0938A013A
:101F9000B0938B018091880190918901A0918A0171
:101FA000B0918B0180938C0190938D01A0938E0151
:101FB000B0938F018CEF92E0909391018093900108
:101FC0008D818093920186E990E0A0E0B0E080935B
:101FD000930190939401A0939501B0939601809101
:101FE000930190919401A0919501B09196018093F5
:101FF000970190939801A0939901B0939A0184E579
:1020000092E090939C0180939B018D8180939D0130
:1020100084E690E0A0E0B0E080939E0190939F0161
:10202000A093A001B093A10180919E0190919F0186
:10203000A091A001B091A1018093A2019093A3016E
:10204000A093A401B093A50188EC9DE09093A70113
:102050008093A6018D818093A80184E690E0A0E0A2
:10206000B0E08093A9019093AA01A093AB01B09333
:10207000AC018091A9019091AA01A091AB01B0910E
:10208000AC018093AD019093AE01A093AF01B093EA
:10209000B0018EE79DE09093B2018093B1018D81F4
:1020A0008093B30186E990E0A0E0B0E08093B401B2
:1020B0009093B501A093B601B093B7018091B4019C
:1020C0009091B501A091B601B091B7018093B8018C
:1020D0009093B901A093BA01B093BB018AE19EE04D
:1020E0009093BD018093BC0161E070E080E090E0DE
:1020F0000E945A010E94AA001A821982AEC08981E8
:102100009A81039779F42C853D8580911B019091EC
:102110001C01A0911D01B0911E01F90181839283E0
:10212000A383B48389819A81880F991F9E012F5FB1
:102130003F4F820F931F0596FC0180819181FC0126
:10214000258136814781508589819A81880F991F21
:10215000BE016F5F7F4F860F971F0596FC01808140
:102160009181FC0181819281A381B4812817390773
:102170004A075B0709F045C089819A81880F991F3A
:102180009E012F5F3F4F820F931F0596FC01008138
:10219000118189819A81880F991F9E012F5F3F4F7E
:1021A000820F931F0596FC0180819181FC0121859E
:1021B000328589819A81880F991FAE014F5F5F4FE9
:1021C000840F951F0596FC0180819181FC0180811F
:1021D000082E000C990BF9010995F801808389817B
:1021E0009A81880F991F9E012F5F3F4F820F931F87
:1021F0000596FC0180819181FC011582168217826F
:10220000108689819A81880F991F9E012F5F3F4F09
:10221000820F931F0596FC012081318189819A816B
:10222000880F991FAE014F5F5F4F840F951F059672
:10223000FC0180819181FC0185819681A781B08517
:102240000196A11DB11DF90185839683A783B087EF
:1022500089819A8101969A83898329813A818B8128
:102260009C812817390708F44ACF000080913E016D
:102270008823E1F310923E013FCFEE0FFF1F0024B1
:10228000001C0BBE0790F691E02D09948F929F924F
:10229000AF92BF92CF92DF92EF92FF92CF93DF93F4
:1022A000EC01688179818A819B81611571058105C5
:1022B000910521F464E279ED8BE597E02DE133EFB0
:1022C00041E050E00E94A01149015A019B01AC017C
:1022D000A7EAB1E40E94BF116B017C01ACEEB4EF40
:1022E000A50194010E94CD11DC01CB018C0D9D1D37
:1022F000AE1DBF1DB7FF03C00197A109B048888379
:102300009983AA83BB839F77DF91CF91FF90EF9052
:10231000DF90CF90BF90AF909F908F9008950C94D6
:10232000461187E291E00C944611A0E0B0E0809362
:10233000270190932801A0932901B0932A010895C1
:10234000052E97FB1EF400940E94B71157FD07D08D
:102350000E94D21107FC03D04EF40C94B711509593
:102360004095309521953F4F4F4F5F4F0895909581
:102370008095709561957F4F8F4F9F4F08950E9474
:10238000F411A59F900DB49F900DA49F800D911DF9
:1023900011240895B7FF0C94BF110E94BF11821B36
:1023A000930B0895A1E21A2EAA1BBB1BFD010DC0C1
:1023B000AA1FBB1FEE1FFF1FA217B307E407F507F5
:1023C00020F0A21BB30BE40BF50B661F771F881FD1
:1023D000991F1A9469F760957095809590959B0167
:1023E000AC01BD01CF010895A29FB001B39FC00110
:1023F000A39F700D811D1124911DB29F700D811D31
:0A2400001124911D0895F894FFCFF8
:10240A00000000020000000081000000000001003E
:10241A00000001800104F100F100FBAF000000FDA3
:10242A00FBF7FDFBF7EFFE010000005B016601719F
:0E243A00017C01870192019D01A801B3010000
:00000001FF
