:100000000C9446000C9465000C9465000C946500FB
:100010000C9465000C9465000C9465000C946500CC
:100020000C9465000C9465000C9465000C946500BC
:100030000C9465000C94DE000C9465000C94650033
:100040000C9465000C9465000C9465000C9465009C
:100050000C9465000C9465000C9465000C9465008C
:100060000C9465000C9465000C9465000C9465007C
:100070000C9465000C9465000C9465000C9465006C
:100080000C9465000C9465000C94650011241FBE4F
:10009000CFEFD0E4DEBFCDBF11E0A0E0B1E0EAEEEB
:1000A000F0E100E00BBF02C007900D92AA32B10749
:1000B000D9F721E0AAE2B1E001C01D92A136B20752
:1000C000E1F70E94EF060C9473080C940000CF93A4
:1000D000DF9300D01F92CDB7DEB789837B836A831D
:1000E00089818A3031F48A819B81BC018DE00E9434
:1000F000670080EC90E0FC018081882F90E08072A6
:100100009927892BB1F386EC90E02981FC012083AB
:1001100080E090E00F900F900F90DF91CF910895C5
:10012000CF93DF93CDB7DEB781E890E02BE0FC0101
:10013000208388E890E02DE730E0FC0131832083C4
:100140008FE690E022E0FC01208384E890E0FC014F
:100150001182108280910E0190910F01A0911001E7
:10016000B091110180932B0190932C01A0932D014C
:10017000B0932E018FE590E02FE530E0F90120816A
:100180002068FC0120830000DF91CF910895CF9378
:10019000DF93CDB7DEB781E890E0FC01108200006C
:1001A000DF91CF910895CF93DF93CDB7DEB781E094
:1001B00080932A010000DF91CF9108951F920F9242
:1001C00000905F000F92112400905B000F922F931C
:1001D0003F934F935F936F937F938F939F93AF93CF
:1001E000BF93EF93FF93CF93DF93CDB7DEB78091AB
:1001F0002B0190912C01A0912D01B0912E0101971E
:10020000A109B10980932B0190932C01A0932D019A
:10021000B0932E0180912B0190912C01A0912D0182
:10022000B0912E01892B8A2B8B2B91F40E94D30045
:1002300080910E0190910F01A0911001B0911101D8
:1002400080932B0190932C01A0932D01B0932E014C
:100250000000DF91CF91FF91EF91BF91AF919F91FE
:100260008F917F916F915F914F913F912F910F905F
:1002700000925B000F9000925F000F901F90189506
:10028000CF93DF9300D000D0CDB7DEB769837A83F8
:100290008B839C8389819A81AB81BC8180930E0181
:1002A00090930F01A0931001B093110180910E0162
:1002B00090910F01A0911001B091110180932B0139
:1002C00090932C01A0932D01B0932E0100000F906C
:1002D0000F900F900F90DF91CF910895CF93DF9300
:1002E000CDB7DEB78AE790E02AE730E0F901208158
:1002F000206EFC0120830000DF91CF910895CF9301
:10030000DF931F92CDB7DEB789838CE790E0298118
:10031000283028F02CE730E0F901208101C0298144
:10032000FC0120831092320106C00000809132014E
:100330008F5F80933201809132018F30B0F30000E3
:100340000F90DF91CF910895CF93DF9300D0CDB779
:10035000DEB79A83898380912F01813009F4A5C08B
:1003600089819A818230910509F443C083309105D7
:100370002CF4009759F0019751F165C08330910535
:1003800009F443C0049709F452C05DC083E290E0D1
:10039000FC018081882F90E081709927892B29F4B6
:1003A00081E090E09A83898351C083E290E0FC0170
:1003B0008081882F90E082709927892B29F483E02F
:1003C00090E09A83898342C01A8219823FC083E2F7
:1003D00090E0FC018081882F90E0019629F482E072
:1003E00090E09A83898332C081E090E09A83898388
:1003F0002DC080912F01882319F41A82198226C0FA
:1004000082E090E09A83898321C083E290E0FC013E
:100410008081882F90E0019629F484E090E09A830F
:10042000898314C083E090E09A8389830FC0809110
:100430002F01882319F41A82198208C084E090E001
:100440009A83898303C01A821982000089819A8164
:100450008230910539F1833091052CF4009749F0F1
:10046000019771F022C08330910599F00497E1F073
:100470001CC0109231011092300110922F0115C052
:1004800081E0809330011092310181E080932F014F
:100490000CC01092300181E08093310181E08093A3
:1004A0002F0103C0000001C0000089819A810F90D4
:1004B0000F90DF91CF910895CF93DF9300D0CDB708
:1004C000DEB79A83898389819A81892B19F01A82F0
:1004D000198201C0000089819A81892B09F05CC0D2
:1004E00088E790E0FC0180819181909334018093B2
:1004F00033018091330190913401823C914018F591
:10050000809117019091180180719927892BD9F05A
:100510008091170190911801880F991F8160909325
:1005200018018093170180911D01880F80931D0190
:1005300080911E01880F80931E0180911F01880FFA
:1005400080931F0128C080913301909134018B3832
:10055000924008F18091170190911801883F910510
:10056000D1F0809117019091180196958795806838
:10057000909318018093170180911D0186958093B7
:100580001D0180911E01869580931E0180911F019F
:10059000869580931F01000089819A810F900F90AA
:1005A000DF91CF910895CF93DF9300D0CDB7DEB721
:1005B0009A83898389819A818130910509F44CC09D
:1005C0008230910509F46CC0892B09F08DC083E25B
:1005D00090E0FC018081882F90E08170992731E0C4
:1005E000892B09F030E083E290E0FC018081882FC4
:1005F00090E08270992721E0892B09F420E0832F75
:100600008223882329F081E090E09A8389836FC058
:1006100083E290E0FC018081882F90E0827099272E
:1006200031E0892B09F030E083E290E0FC01808129
:10063000882F90E08170992721E0892B09F420E030
:10064000832F8223882329F082E090E09A83898394
:100650004EC01A8219824BC083E290E0FC01808177
:10066000882F90E08170992731E0892B09F030E0E4
:1006700083E290E0FC018081882F90E082709927CE
:1006800021E0892B09F420E0832F8223882329F09D
:1006900081E090E09A8389832AC01A82198227C058
:1006A00083E290E0FC018081882F90E0827099279E
:1006B00031E0892B09F030E083E290E0FC01808199
:1006C000882F90E08170992721E0892B09F420E0A0
:1006D000832F8223882329F082E090E09A83898304
:1006E00006C01A82198203C01A8219820000898109
:1006F0009A818130910539F08230910539F1892B49
:1007000009F447C04BC08091150190911601883FB4
:10071000910509F440C080911501909116019695BC
:1007200087958068909316018093150180911A0136
:10073000869580931A0180911B01869580931B01F9
:1007400080911C01869580931C0125C08091150124
:100750009091160180719927892BF9F080911501EC
:1007600090911601880F991F8160909316018093D4
:10077000150180911A01880F80931A0180911B0145
:10078000880F80931B0180911C01880F80931C01AE
:1007900004C0000003C0000001C0000089819A81EC
:1007A0000F900F90DF91CF910895CF93DF9300D0FA
:1007B000CDB7DEB79A83898389819A81823091058A
:1007C00009F4EBC18330910534F4009781F001976F
:1007D00009F47FC146C28430910509F4B6C0843063
:1007E00091050CF414C1059709F458C03AC28091E0
:1007F0001401823059F49091190180911E019817CB
:1008000029F485E090E09A83898347C080911401A0
:10081000823079F4809119018E3F59F490911D0135
:1008200080911901981729F484E090E09A838983D4
:1008300034C080911401823059F490911901809153
:100840001D01981729F483E090E09A83898325C0DD
:1008500080911401823079F4809119018F3E59F40E
:1008600090911F0180911901981729F483E090E07D
:100870009A83898312C080911401823059F4909137
:10088000190180911F01981729F484E090E09A8360
:10089000898303C01A821982E4C1E3C180911401E3
:1008A000803449F49091190180911B01981719F433
:1008B0001A82198249C080911401803479F48091A0
:1008C00019018E3F59F49091190180911D019817DB
:1008D00029F482E090E09A83898336C080911401E4
:1008E000803459F49091190180911D01981729F4D1
:1008F00081E090E09A83898327C08091140180343D
:1009000079F4809119018F3E59F4909119018091E9
:100910001F01981729F481E090E09A83898314C01D
:1009200080911401803459F49091190180911F0134
:10093000981729F482E090E09A83898305C085E0C6
:1009400090E09A8389838DC18CC180911401803499
:1009500049F49091190180911B01981719F41A829A
:10096000198254C080911401803479F48091190166
:100970008E3F59F490911A0180911901981729F42A
:1009800082E090E09A83898341C080911401803491
:1009900059F490911A0180911901981729F481E076
:1009A00090E09A83898332C080911401803479F475
:1009B000809119018F3E59F490911C018091190189
:1009C000981729F481E090E09A8389831FC0809171
:1009D0001401803459F490911C01809119019817E9
:1009E00029F482E090E09A83898310C090911901E4
:1009F00080912001981729F483E090E09A838983FD
:100A000030C184E090E09A8389832BC12AC1809110
:100A10001401803449F490911B01809119019817B9
:100A200019F41A82198254C080911401803479F427
:100A3000809119018E3F59F490911A01809119010A
:100A4000981729F482E090E09A83898341C08091CD
:100A50001401803459F490911A018091190198176A
:100A600029F481E090E09A83898332C08091140157
:100A7000803479F4809119018F3E59F490911C01D2
:100A800080911901981729F481E090E09A83898375
:100A90001FC080911401803459F490911C01809101
:100AA0001901981729F482E090E09A83898310C095
:100AB0009091190180912101981729F484E090E028
:100AC0009A838983CEC083E090E09A838983C9C0EA
:100AD000C8C080911401823059F490911E01809118
:100AE0001901981729F485E090E09A83898354C00E
:100AF00080911401823079F4809119018E3F59F46C
:100B000090911D0180911901981729F483E090E0DC
:100B10009A83898341C080911401823059F4909165
:100B20001D0180911901981729F483E090E09A83C0
:100B3000898332C080911401823079F48091190147
:100B40008F3E59F490911F0180911901981729F453
:100B500083E090E09A8389831FC0809114018230E2
:100B600059F490911F0180911901981729F484E09C
:100B700090E09A83898310C090911901809121019E
:100B8000981729F482E090E09A8389836AC081E013
:100B900090E09A83898365C064C08091140182309B
:100BA00059F490911E0180911901981729F485E05C
:100BB00090E09A83898354C080911401823079F443
:100BC000809119018E3F59F490911D018091190176
:100BD000981729F484E090E09A83898341C080913A
:100BE0001401823059F490911D01809119019817D8
:100BF00029F483E090E09A83898332C080911401C4
:100C0000823079F4809119018F3E59F490911F013F
:100C100080911901981729F483E090E09A838983E1
:100C20001FC080911401823059F490911901809174
:100C30001F01981729F484E090E09A83898310C0FB
:100C40009091190180912001981729F481E090E09A
:100C50009A83898305C082E090E09A83898300C0EB
:100C6000000089819A8182309105C9F18330910514
:100C700034F4009769F0019709F440C04BC0843008
:100C8000910591F084309105F4F0059739F042C058
:100C9000809114018695809314013CC080911401C9
:100CA000880F8093140136C080911401880F8093BF
:100CB000140180911901882F90E0880F991F81609D
:100CC0008093190127C080911401880F809314012B
:100CD0008091190186958068809319011BC08091CD
:100CE000140186958093140180911901882F90E05A
:100CF000880F991F8160809319010CC080911401A5
:100D0000869580931401809119018695806880935F
:100D10001901000089819A810F900F90DF91CF9186
:100D20000895CF93DF9300D0CDB7DEB79A83898340
:100D300089819A818130910551F08230910561F06D
:100D4000892B69F481E090E09A8389830BC082E06B
:100D500090E09A83898306C01A82198203C01A829E
:100D60001982000089819A8181309105A9F0823031
:100D7000910509F1892B09F02BC088E290E02091C0
:100D80001201FC0120838BE290E02091150130914B
:100D90001601FC0120831CC088E290E02091130121
:100DA000FC0120838BE290E0209117013091180123
:100DB000FC0120830DC088E290E020911401FC0129
:100DC00020838BE290E020911901FC012083000038
:100DD00089819A810F900F90DF91CF9108950F93A1
:100DE0001F93CF93DF93CDB7DEB72D970FB6F8944F
:100DF000DEBF0FBECDBF84E290E0FC01108285E231
:100E000090E02FEFFC01208387E290E02FEFFC01C0
:100E1000208388E290E0FC0110828AE290E02FEFCC
:100E2000FC0120838BE290E0FC0110820E946E01A5
:100E300081E00E947F0188E0E2E2F1E0DE011696A7
:100E400001900D928A95E1F784E090E09C838B837A
:100E50001D828D818093350188EC90E0A0E0B0E0A8
:100E60008093360190933701A0933801B0933901F4
:100E70008091360190913701A0913801B0913901EC
:100E800080933A0190933B01A0933C01B0933D01C4
:100E90008CE592E090933F0180933E018D81809399
:100EA000400188EC90E0A0E0B0E080934101909395
:100EB0004201A0934301B09344018091410190917C
:100EC0004201A0914301B091440180934501909368
:100ED0004601A0934701B093480183ED92E09093BF
:100EE0004A01809349018D8180934B0188EC90E009
:100EF000A0E0B0E080934C0190934D01A0934E018F
:100F0000B0934F0180914C0190914D01A0914E0101
:100F1000B0914F018093500190935101A0935201E1
:100F2000B093530185ED93E0909355018093540164
:100F30008D818093560181E090E0A0E0B0E0809345
:100F4000570190935801A0935901B0935A01809191
:100F5000570190915801A0915901B0915A01809385
:100F60005B0190935C01A0935D01B0935E0181E908
:100F700096E09093600180935F0161E070E080E013
:100F800090E00E9440010E9490001A8219829BC04A
:100F900089819A81880F991F9E012F5F3F4F820F91
:100FA000931F0596FC0180819181FC01258136818A
:100FB0004781508589819A81880F991FBE016F5F93
:100FC0007F4F860F971F0596FC0180819181FC0160
:100FD00081819281A381B481281739074A075B0771
:100FE00009F045C089819A81880F991F9E012F5F62
:100FF0003F4F820F931F0596FC010081118189816B
:101000009A81880F991F9E012F5F3F4F820F931F78
:101010000596FC0180819181FC01218532858981C1
:101020009A81880F991FAE014F5F5F4F840F951F04
:101030000596FC0180819181FC018081082E000CC5
:10104000990BF9010995F801808389819A81880FAC
:10105000991F9E012F5F3F4F820F931F0596FC0142
:1010600080819181FC011582168217821086898108
:101070009A81880F991F9E012F5F3F4F820F931F08
:101080000596FC012081318189819A81880F991F01
:10109000AE014F5F5F4F840F951F0596FC01808165
:1010A0009181FC0185819681A781B0850196A11D62
:1010B000B11DF90185839683A783B08789819A81C1
:1010C00001969A83898329813A818B819C81281793
:1010D000390708F45DCF000080912A018823E1F3ED
:0A10E00010922A0152CFF894FFCFBE
:1010EA00000000020000000067000000000001008C
:1010FA000000800104F100F100FBFDFBF7FDFBF7A6
:0A110A00EFFE350140014B015601D4
:00000001FF
